:1000000097C0BBC0E7C0B9C0CCC5B7C0B6C0B5C00B
:10001000B4C0B3C0B2C0B1C0B0C0AFC0AEC02A2B74
:1000200028000000000000000000000000000000A8
:100030000029000000002C9EB4A0A1A2A434A6A711
:10004000A5AE362D3738271E1F2021222324252632
:10005000B333B62EB7B89F8485868788898A8B8C00
:100060008D8E8F909192939495969798999A9B9C48
:100070009D2F3130A3AD350405060708090A0B0C86
:100080000D0E0F101112131415161718191A1B1C28
:100090001DAFB1B0B505010906A101050719E02999
:1000A000E715002501750195088102950175082560
:1000B00065190029658100C0090222000101008044
:1000C00032090400000103010100092101010001BE
:1000D0002223000705810308000A12011001000015
:1000E0000008C016DB2700010102000110034400D4
:1000F0006900670069004B00650079001C0364001B
:100100006900670069007300740075006D0070007D
:100110002E0063006F006D0004030904010204084F
:100120001020010101010101003600380037710380
:1001300011241FBECFE5D2E0DEBFCDBF10E0A0E6A8
:10014000B0E0E4ECFDE002C005900D92AA37B107E3
:10015000D9F720E0AAE7B0E001C01D92AA3FB2079C
:10016000E1F711E0C0E3D1E003C02297FE0124D6FD
:10017000CE32D107D1F71AD623C642CFA82FB92F36
:1001800080E090E041E050EA609530E009C02D91B8
:1001900082279795879510F084279527305EC8F3BE
:1001A0006F5FA8F30895EADF8D939D930895A6E00D
:1001B00088279927AA9569F00197E1F3B399FCCFB5
:1001C000B39BFECF81E09927A6B3019611F0A871E9
:1001D000D9F70895CF93CFB7CF93C395B39BE9F7E2
:1001E000B39B0BC0B39B09C0B39B07C0B39B05C0B7
:1001F000B39B03C0B39B01C0D5C00F92DF93C091E6
:10020000DD00DD27CC51DF4F012EB39B03C0DF9112
:100210000F90E6CF2F930F931F934F932FEF4F6FB6
:1002200006B303FB20F95F933F9350E03BE065C0CA
:1002300016B30126502953FDC89556B3012703FB79
:1002400025F92F7306B3B1F05027102713FB26F9B9
:1002500006B22230F0F000C016B3012703FB27F9E5
:100260000126502906B22430E8F54F77206816B3EE
:100270000000F6CF50274F7D206206B2102F0000FD
:1002800000C006B300265029102713FB26F906B23A
:10029000E2CF4F7B06B3206400C0DACF012650299D
:1002A000187106B269F14E7F2160012F16B328C084
:1002B000002650294D7F06B22260102F29C001264A
:1002C00050294B7F06B22460012F2DC016B30126A2
:1002D0005029477F2860000006B22EC04F7E06B32B
:1002E000206130C0422706B34993002650291027C9
:1002F00006B24FEF13FB20F9297F16B379F218717C
:1003000059F10126502906B2012703FB21F9237F69
:1003100006B371F2002650293150D0F006B21027F2
:1003200013FB22F9277E16B351F20126502901272B
:1003300003FB06B223F92F7C49F2000006B3102715
:1003400013FB24F90026502906B22F7939F270CF19
:1003500010E21ABF002719C03B503195C31BD04093
:1003600010E21ABF0881033C09F10B34F9F0209127
:10037000DB001981110F1213EDCF4A81441F09369A
:1003800051F10D3211F0013E29F70093E2003F9147
:100390005F914F911F910F912F91DF910F90CAB7ED
:1003A000C5FD1BCFCF91CFBFCF9118952091E20013
:1003B000222369F31091E000112379F534307AF1AA
:1003C0003093E0002093DC001091DD003BE0311B16
:1003D0003093DD0024C00091E0000130F4F40AE520
:1003E0004F7049F43091670034FD1AC000936700E4
:1003F000C4ECD0E019C03091CF0034FD11C000939F
:10040000CF00C0EDD0E010C0052710E000C021C033
:10041000052710E0C89508BB14C03AE501C032EDCD
:10042000032EC0E0D0E032E017B31861C39A08B3DE
:1004300017BB58E120E84FEF20FF052708BB2795A1
:1004400017951C3F28F700004552B0F720FF0527FD
:10045000279508BB17951C3FB8F629913A9561F787
:10046000077E1091E100110F08BBC250D04011F07F
:100470001093DB0010E21ABF086017B3177E402FFD
:10048000477E54E05A95F1F708BB17BB48BB7FCFB6
:100490000F931F93CF93DF9300D0CDB7DEB78C01BE
:1004A0008091CF0084FD0CC04A836983A4D180E988
:1004B00090E50197F1F700C0000069814A81F0CF13
:1004C000F8014283638362E0C80102960F900F90A7
:1004D000DF91CF911F910F916AC1CF93DF93EC0110
:1004E000D7DF40E060E0CE01DF91CF91D1CFE62FA2
:1004F000F0E0EA5EFF4F6491262F30E0220F232FB9
:10050000221F330B232B11F040E201C040E06F7734
:10051000E4DF81E090E00895FC0186EB90E09093A9
:10052000DF008093DE0080818076803231F481812B
:100530008A3019F483818093B80080E0089540E008
:1005400060E084EB90E0C9DF42E050E060E070E002
:1005500084EA90E0A3D26EE170E084EA90E0B1D248
:1005600042E050E061E070E086E990E097D26EE111
:1005700070E086E990E0A5D242E050E062E070E0F1
:1005800088E890E08BD26EE170E088E890E099D244
:1005900042E050E065E070E08AE790E07FD26EE1F3
:1005A00070E08AE790E08DD284EA90E08ED284EA0F
:1005B00090E0DAD2811105C08091B2008160809311
:1005C000B20086E990E081D286E990E0CDD2811137
:1005D00005C08091B20082608093B20088E890E00C
:1005E00074D288E890E0C0D2811105C08091B20039
:1005F00084608093B2008AE790E067D28AE790E057
:10060000B3D2811105C08091B20088608093B2009E
:100610008091B2008093B300089584EA90E055D2AF
:1006200084EA90E0A5D2882319F081E08093B2009B
:1006300086E990E04AD286E990E09AD2882319F0C0
:1006400082E08093B20088E890E03FD288E890E0B2
:100650008FD2882319F084E08093B2008AE790E07B
:1006600034D28AE790E084D2882319F088E080931E
:10067000B20008953091B3002091B200832F90E032
:10068000821B910997FF05C0313049F4283039F4B5
:1006900009C0009739F0383029F4213019F442E0CC
:1006A00065E114C0181619064CF4383069F481E07D
:1006B000213009F480E0882361F006C0892B49F0DD
:1006C000313039F4283029F442E06FE084EB90E0D7
:1006D00004DF8091B2008093B30008958CD09DDF39
:1006E000C9CF8CE690E09093B5008093B400F89465
:1006F000BB9A27EA86E99CE0215080409040E1F7D0
:1007000000C00000BB988BD178941092B700109273
:10071000B60062E086EB90E04AD084EA90E096D1A1
:1007200086E990E093D188E890E090D18AE790E064
:100730008DC1DF92EF92FF920F931F93CF93DF93C0
:10074000C8E0D0E0F12C80E8E82EDF2CDE0CD1BE32
:100750002EDD8C01043389E018070CF4FD2CE6949F
:10076000219799F78FEF8F0D81BFCF2DD0E0219684
:1007700081B790E0C817D9078CF019DD84539940F0
:1007800097FF03C09195819591098017910714F403
:10079000F1B68C0181B78F5F81BFEACFF1BEDF91E7
:1007A000CF911F910F91FF90EF90DF900895CF931D
:1007B000C62F2091CF0024FF07C02091D00038E839
:1007C00023272093D00003C02AE52093CF00DC012B
:1007D000E1EDF0E09C2F9E0F8D918193892F8E1B70
:1007E0001816D4F36C2F81ED90E0DDDCCC5FC09364
:1007F000CF00CF910895CF93DF938091E000835095
:1008000087FDA8C09091DD002091DC002D3209F019
:100810009FC0883009F09CC0CCE0D0E0C91BD10952
:10082000CC51DF4F83EC8093C4008AE5809367004E
:100830001092BA008881807619F0CE016DDE7FC0FB
:100840009A811092CD008981811106C01092CE004C
:100850002DEC30E082E06FC0853019F49093E10018
:1008600067C0863009F04EC08B81813041F48AED3B
:1008700090E09093DF008093DE0082E13FC0823001
:1008800041F488EB90E09093DF008093DE0082E2F9
:1008900035C08330F1F4911108C088E191E0909364
:1008A000DF008093DE0084E029C0913041F48CEFBA
:1008B00090E09093DF008093DE008CE11FC09230C7
:1008C000E1F48CEE90E09093DF008093DE0080E115
:1008D00015C0813241F48AEC90E09093DF00809360
:1008E000DE0089E00BC0823241F485E990E090930C
:1008F000DF008093DE0083E201C080E090E490930B
:10090000BA001DC0883069F0893019F49093E30073
:100910000FC08A3049F08B3059F48BE48093D000BB
:1009200007C023EE30E002C02DEC30E081E003C0D0
:100930002DEC30E080E03093DF002093DE009F81DB
:10094000911104C09E81981708F4892F8093660046
:100950001092E0008091670084FF46C0809166009D
:100960008F3F09F441C0C82F893008F0C8E08C1BC4
:10097000809366008091C40098E889278093C40022
:10098000CC2331F12091DE003091DF008091BA005C
:1009900086FF0BC0A5ECB0E0F9018C2F8A0F949173
:1009A0009D9331968A13FBCF09C0D901E5ECF0E0A5
:1009B0008C2F8E0F9D9191938E13FCCF8FEF8C0F08
:1009C00090E00196820F931F9093DF008093DE00EA
:1009D0006C2F85EC90E0E7DBCC5FCC3019F08FEF2B
:1009E00080936600C093670084E196B3987131F4F8
:1009F0008150D9F71092E1001092DB00C1E0811123
:100A0000C0E08091B9008C1739F0C11103C0F8948F
:100A100090DE7894C093B900DF91CF910895AC9A9D
:100A20008BB780628BBF8BE48093D0008AE5809384
:100A3000CF000895FC01818557D121E0892B09F46D
:100A400020E0822F0895862F642F17C1FC0186E7CE
:100A500090E09183808312821382148215828AE04F
:100A600090E097838683108611860895CF93DF9355
:100A7000EC0169871886E881F9810190F081E02D09
:100A80000995882319F0888583608887D1D06A8387
:100A90007B838C839D83DF91CF9108950F931F9368
:100AA000CF93DF93EC018B01E881F9810280F38120
:100AB000E02D0995B801CE01DF91CF911F910F91E3
:100AC000D5CFFC01778366830895FF920F931F9320
:100AD000CF93DF93EC0188858B7F8887E881F9814C
:100AE0000190F081E02DCE010995F82E888586953C
:100AF0008170F81651F09CD06A837B838C839D8330
:100B0000888592E08927888725C092D00A811B8139
:100B10002C813D81601B710B820B930B0E811F8119
:100B200020E030E0601771078207930798F09885FE
:100B30009170F91679F07CD06A837B838C839D83D6
:100B4000888591E089278460888772D06A877B874F
:100B50008C879D87888582FB882780F9DF91CF91DC
:100B60001F910F91FF900895FC0180858170089579
:100B7000FC01808580FD04C082FB882780F90895F0
:100B800080E0089583B7887F83BF8AB58C7F8160BA
:100B90008ABD83B7877F83BF83B7887F836083BF26
:100BA000089578941F920F920FB60F9211242F93ED
:100BB0003F938F939F93AF93BF938091BC0090918D
:100BC000BD00A091BE00B091BF003091BB002CE7EA
:100BD000230F2D3728F02FEF230F0196A11DB11DF4
:100BE0002093BB008093BC009093BD00A093BE00F7
:100BF000B093BF008091C0009091C100A091C2004D
:100C0000B091C3000196A11DB11D8093C0009093C7
:100C1000C100A093C200B093C300BF91AF919F9158
:100C20008F913F912F910F900FBE0F901F901895AD
:100C30002FB7F8946091BC007091BD008091BE0008
:100C40009091BF002FBF0895789480B7806880BFCF
:100C500080B7806480BF8CB580648CBD8FEF8DBD04
:100C600080B7807F876080BF89B7846089BF8ADF53
:100C700086B1876086B9379A0895CF93DF9390E065
:100C8000FC01E45EFE4F2491FC01EE5DFE4F849179
:100C9000882339F190E0FC01E45DFE4FA491B0E0BF
:100CA000FC01E65DFE4F8491611106C09FB7F89488
:100CB0008C912095822313C0623069F4C82FD0E054
:100CC0009FB7F8948C91322F309583238C93888131
:100CD000822B888305C09FB7F8948C91822B8C93CC
:100CE0009FBFDF91CF910895282F30E0F901E45E96
:100CF000FE4F9491F901EE5DFE4FE491EE23E1F099
:100D0000811103C08AB58F7304C0813021F48AB584
:100D10008F7C8ABD05C0843019F48CB58F7C8CBD66
:100D2000F0E0E85DFE4FE491F0E02081292381E0CE
:100D300090E021F480E0089580E090E008950F9322
:100D40001F93CF93DF93EC018B01F80161918F0129
:100D5000662341F0E881F9810190F081E02DCE0118
:100D60000995F3CFDF91CF911F910F910895EF92E5
:100D7000FF920F931F93CF93DF937C018A01EB01C6
:100D8000060F171FC017D10751F06991D701ED91D8
:100D9000FC910190F081E02DC7010995F3CFDF911F
:100DA000CF911F910F91FF90EF9008954DDFC7DB1A
:100DB00095DCFECFEE0FFF1F0590F491E02D099416
:040DC000F894FFCFD5
:100DC4000000FA008000FF5A0000000077029F062E
:0A0DD400B706000000001A05230511
:00000001FF
